{
  "_format": "hh-sol-artifact-1",
  "contractName": "NFTHappyBag",
  "sourceName": "contracts/NFTBoilMerkle.sol",
  "abi": [
    {
      "inputs": [
        {
          "internalType": "string",
          "name": "_name",
          "type": "string"
        },
        {
          "internalType": "string",
          "name": "_symbol",
          "type": "string"
        }
      ],
      "stateMutability": "nonpayable",
      "type": "constructor"
    },
    {
      "anonymous": false,
      "inputs": [
        {
          "indexed": true,
          "internalType": "address",
          "name": "owner",
          "type": "address"
        },
        {
          "indexed": true,
          "internalType": "address",
          "name": "approved",
          "type": "address"
        },
        {
          "indexed": true,
          "internalType": "uint256",
          "name": "tokenId",
          "type": "uint256"
        }
      ],
      "name": "Approval",
      "type": "event"
    },
    {
      "anonymous": false,
      "inputs": [
        {
          "indexed": true,
          "internalType": "address",
          "name": "owner",
          "type": "address"
        },
        {
          "indexed": true,
          "internalType": "address",
          "name": "operator",
          "type": "address"
        },
        {
          "indexed": false,
          "internalType": "bool",
          "name": "approved",
          "type": "bool"
        }
      ],
      "name": "ApprovalForAll",
      "type": "event"
    },
    {
      "anonymous": false,
      "inputs": [
        {
          "indexed": true,
          "internalType": "address",
          "name": "previousOwner",
          "type": "address"
        },
        {
          "indexed": true,
          "internalType": "address",
          "name": "newOwner",
          "type": "address"
        }
      ],
      "name": "OwnershipTransferred",
      "type": "event"
    },
    {
      "anonymous": false,
      "inputs": [
        {
          "indexed": false,
          "internalType": "address",
          "name": "account",
          "type": "address"
        }
      ],
      "name": "Paused",
      "type": "event"
    },
    {
      "anonymous": false,
      "inputs": [
        {
          "indexed": true,
          "internalType": "address",
          "name": "from",
          "type": "address"
        },
        {
          "indexed": true,
          "internalType": "address",
          "name": "to",
          "type": "address"
        },
        {
          "indexed": true,
          "internalType": "uint256",
          "name": "tokenId",
          "type": "uint256"
        }
      ],
      "name": "Transfer",
      "type": "event"
    },
    {
      "anonymous": false,
      "inputs": [
        {
          "indexed": false,
          "internalType": "address",
          "name": "account",
          "type": "address"
        }
      ],
      "name": "Unpaused",
      "type": "event"
    },
    {
      "inputs": [],
      "name": "BASE_EXTENSION",
      "outputs": [
        {
          "internalType": "string",
          "name": "",
          "type": "string"
        }
      ],
      "stateMutability": "view",
      "type": "function"
    },
    {
      "inputs": [],
      "name": "MAX_SUPPLY",
      "outputs": [
        {
          "internalType": "uint256",
          "name": "",
          "type": "uint256"
        }
      ],
      "stateMutability": "view",
      "type": "function"
    },
    {
      "inputs": [],
      "name": "PRESALE_MAX_PER_WALLET",
      "outputs": [
        {
          "internalType": "uint256",
          "name": "",
          "type": "uint256"
        }
      ],
      "stateMutability": "view",
      "type": "function"
    },
    {
      "inputs": [],
      "name": "PUBLIC_MAX_PER_TX",
      "outputs": [
        {
          "internalType": "uint256",
          "name": "",
          "type": "uint256"
        }
      ],
      "stateMutability": "view",
      "type": "function"
    },
    {
      "inputs": [
        {
          "internalType": "address",
          "name": "to",
          "type": "address"
        },
        {
          "internalType": "uint256",
          "name": "tokenId",
          "type": "uint256"
        }
      ],
      "name": "approve",
      "outputs": [],
      "stateMutability": "nonpayable",
      "type": "function"
    },
    {
      "inputs": [
        {
          "internalType": "address",
          "name": "owner",
          "type": "address"
        }
      ],
      "name": "balanceOf",
      "outputs": [
        {
          "internalType": "uint256",
          "name": "",
          "type": "uint256"
        }
      ],
      "stateMutability": "view",
      "type": "function"
    },
    {
      "inputs": [],
      "name": "baseURI",
      "outputs": [
        {
          "internalType": "string",
          "name": "",
          "type": "string"
        }
      ],
      "stateMutability": "view",
      "type": "function"
    },
    {
      "inputs": [
        {
          "internalType": "uint256",
          "name": "tokenId",
          "type": "uint256"
        }
      ],
      "name": "getApproved",
      "outputs": [
        {
          "internalType": "address",
          "name": "",
          "type": "address"
        }
      ],
      "stateMutability": "view",
      "type": "function"
    },
    {
      "inputs": [],
      "name": "getCurrentCost",
      "outputs": [
        {
          "internalType": "uint256",
          "name": "",
          "type": "uint256"
        }
      ],
      "stateMutability": "view",
      "type": "function"
    },
    {
      "inputs": [
        {
          "internalType": "address",
          "name": "owner",
          "type": "address"
        },
        {
          "internalType": "address",
          "name": "operator",
          "type": "address"
        }
      ],
      "name": "isApprovedForAll",
      "outputs": [
        {
          "internalType": "bool",
          "name": "",
          "type": "bool"
        }
      ],
      "stateMutability": "view",
      "type": "function"
    },
    {
      "inputs": [],
      "name": "merkleRoot",
      "outputs": [
        {
          "internalType": "bytes32",
          "name": "",
          "type": "bytes32"
        }
      ],
      "stateMutability": "view",
      "type": "function"
    },
    {
      "inputs": [],
      "name": "name",
      "outputs": [
        {
          "internalType": "string",
          "name": "",
          "type": "string"
        }
      ],
      "stateMutability": "view",
      "type": "function"
    },
    {
      "inputs": [],
      "name": "notRevealedUri",
      "outputs": [
        {
          "internalType": "string",
          "name": "",
          "type": "string"
        }
      ],
      "stateMutability": "view",
      "type": "function"
    },
    {
      "inputs": [],
      "name": "owner",
      "outputs": [
        {
          "internalType": "address",
          "name": "",
          "type": "address"
        }
      ],
      "stateMutability": "view",
      "type": "function"
    },
    {
      "inputs": [
        {
          "internalType": "address",
          "name": "_address",
          "type": "address"
        },
        {
          "internalType": "uint256",
          "name": "count",
          "type": "uint256"
        }
      ],
      "name": "ownerMint",
      "outputs": [],
      "stateMutability": "nonpayable",
      "type": "function"
    },
    {
      "inputs": [
        {
          "internalType": "uint256",
          "name": "tokenId",
          "type": "uint256"
        }
      ],
      "name": "ownerOf",
      "outputs": [
        {
          "internalType": "address",
          "name": "",
          "type": "address"
        }
      ],
      "stateMutability": "view",
      "type": "function"
    },
    {
      "inputs": [],
      "name": "pause",
      "outputs": [],
      "stateMutability": "nonpayable",
      "type": "function"
    },
    {
      "inputs": [],
      "name": "paused",
      "outputs": [
        {
          "internalType": "bool",
          "name": "",
          "type": "bool"
        }
      ],
      "stateMutability": "view",
      "type": "function"
    },
    {
      "inputs": [],
      "name": "preCost",
      "outputs": [
        {
          "internalType": "uint256",
          "name": "",
          "type": "uint256"
        }
      ],
      "stateMutability": "view",
      "type": "function"
    },
    {
      "inputs": [
        {
          "internalType": "uint256",
          "name": "_mintAmount",
          "type": "uint256"
        },
        {
          "internalType": "bytes32[]",
          "name": "_merkleProof",
          "type": "bytes32[]"
        }
      ],
      "name": "preMint",
      "outputs": [],
      "stateMutability": "payable",
      "type": "function"
    },
    {
      "inputs": [],
      "name": "presale",
      "outputs": [
        {
          "internalType": "bool",
          "name": "",
          "type": "bool"
        }
      ],
      "stateMutability": "view",
      "type": "function"
    },
    {
      "inputs": [],
      "name": "publicCost",
      "outputs": [
        {
          "internalType": "uint256",
          "name": "",
          "type": "uint256"
        }
      ],
      "stateMutability": "view",
      "type": "function"
    },
    {
      "inputs": [
        {
          "internalType": "uint256",
          "name": "_mintAmount",
          "type": "uint256"
        }
      ],
      "name": "publicMint",
      "outputs": [],
      "stateMutability": "payable",
      "type": "function"
    },
    {
      "inputs": [],
      "name": "renounceOwnership",
      "outputs": [],
      "stateMutability": "nonpayable",
      "type": "function"
    },
    {
      "inputs": [],
      "name": "reveal",
      "outputs": [],
      "stateMutability": "nonpayable",
      "type": "function"
    },
    {
      "inputs": [],
      "name": "revealed",
      "outputs": [
        {
          "internalType": "bool",
          "name": "",
          "type": "bool"
        }
      ],
      "stateMutability": "view",
      "type": "function"
    },
    {
      "inputs": [],
      "name": "royaltyAddress",
      "outputs": [
        {
          "internalType": "address",
          "name": "",
          "type": "address"
        }
      ],
      "stateMutability": "view",
      "type": "function"
    },
    {
      "inputs": [],
      "name": "royaltyFee",
      "outputs": [
        {
          "internalType": "uint96",
          "name": "",
          "type": "uint96"
        }
      ],
      "stateMutability": "view",
      "type": "function"
    },
    {
      "inputs": [
        {
          "internalType": "uint256",
          "name": "_tokenId",
          "type": "uint256"
        },
        {
          "internalType": "uint256",
          "name": "_salePrice",
          "type": "uint256"
        }
      ],
      "name": "royaltyInfo",
      "outputs": [
        {
          "internalType": "address",
          "name": "",
          "type": "address"
        },
        {
          "internalType": "uint256",
          "name": "",
          "type": "uint256"
        }
      ],
      "stateMutability": "view",
      "type": "function"
    },
    {
      "inputs": [
        {
          "internalType": "address",
          "name": "from",
          "type": "address"
        },
        {
          "internalType": "address",
          "name": "to",
          "type": "address"
        },
        {
          "internalType": "uint256",
          "name": "tokenId",
          "type": "uint256"
        }
      ],
      "name": "safeTransferFrom",
      "outputs": [],
      "stateMutability": "nonpayable",
      "type": "function"
    },
    {
      "inputs": [
        {
          "internalType": "address",
          "name": "from",
          "type": "address"
        },
        {
          "internalType": "address",
          "name": "to",
          "type": "address"
        },
        {
          "internalType": "uint256",
          "name": "tokenId",
          "type": "uint256"
        },
        {
          "internalType": "bytes",
          "name": "data",
          "type": "bytes"
        }
      ],
      "name": "safeTransferFrom",
      "outputs": [],
      "stateMutability": "nonpayable",
      "type": "function"
    },
    {
      "inputs": [
        {
          "internalType": "address",
          "name": "operator",
          "type": "address"
        },
        {
          "internalType": "bool",
          "name": "approved",
          "type": "bool"
        }
      ],
      "name": "setApprovalForAll",
      "outputs": [],
      "stateMutability": "nonpayable",
      "type": "function"
    },
    {
      "inputs": [
        {
          "internalType": "string",
          "name": "_newBaseURI",
          "type": "string"
        }
      ],
      "name": "setBaseURI",
      "outputs": [],
      "stateMutability": "nonpayable",
      "type": "function"
    },
    {
      "inputs": [
        {
          "internalType": "bytes32",
          "name": "_merkleRoot",
          "type": "bytes32"
        }
      ],
      "name": "setMerkleRoot",
      "outputs": [],
      "stateMutability": "nonpayable",
      "type": "function"
    },
    {
      "inputs": [
        {
          "internalType": "string",
          "name": "_notRevealedURI",
          "type": "string"
        }
      ],
      "name": "setNotRevealedURI",
      "outputs": [],
      "stateMutability": "nonpayable",
      "type": "function"
    },
    {
      "inputs": [
        {
          "internalType": "uint256",
          "name": "_preCost",
          "type": "uint256"
        }
      ],
      "name": "setPreCost",
      "outputs": [],
      "stateMutability": "nonpayable",
      "type": "function"
    },
    {
      "inputs": [
        {
          "internalType": "bool",
          "name": "_state",
          "type": "bool"
        }
      ],
      "name": "setPresale",
      "outputs": [],
      "stateMutability": "nonpayable",
      "type": "function"
    },
    {
      "inputs": [
        {
          "internalType": "uint256",
          "name": "_publicCost",
          "type": "uint256"
        }
      ],
      "name": "setPublicCost",
      "outputs": [],
      "stateMutability": "nonpayable",
      "type": "function"
    },
    {
      "inputs": [
        {
          "internalType": "address",
          "name": "_royaltyAddress",
          "type": "address"
        }
      ],
      "name": "setRoyaltyAddress",
      "outputs": [],
      "stateMutability": "nonpayable",
      "type": "function"
    },
    {
      "inputs": [
        {
          "internalType": "uint96",
          "name": "_feeNumerator",
          "type": "uint96"
        }
      ],
      "name": "setRoyaltyFee",
      "outputs": [],
      "stateMutability": "nonpayable",
      "type": "function"
    },
    {
      "inputs": [
        {
          "internalType": "bytes4",
          "name": "interfaceId",
          "type": "bytes4"
        }
      ],
      "name": "supportsInterface",
      "outputs": [
        {
          "internalType": "bool",
          "name": "",
          "type": "bool"
        }
      ],
      "stateMutability": "view",
      "type": "function"
    },
    {
      "inputs": [],
      "name": "symbol",
      "outputs": [
        {
          "internalType": "string",
          "name": "",
          "type": "string"
        }
      ],
      "stateMutability": "view",
      "type": "function"
    },
    {
      "inputs": [
        {
          "internalType": "uint256",
          "name": "index",
          "type": "uint256"
        }
      ],
      "name": "tokenByIndex",
      "outputs": [
        {
          "internalType": "uint256",
          "name": "",
          "type": "uint256"
        }
      ],
      "stateMutability": "view",
      "type": "function"
    },
    {
      "inputs": [
        {
          "internalType": "address",
          "name": "owner",
          "type": "address"
        },
        {
          "internalType": "uint256",
          "name": "index",
          "type": "uint256"
        }
      ],
      "name": "tokenOfOwnerByIndex",
      "outputs": [
        {
          "internalType": "uint256",
          "name": "",
          "type": "uint256"
        }
      ],
      "stateMutability": "view",
      "type": "function"
    },
    {
      "inputs": [
        {
          "internalType": "uint256",
          "name": "tokenId",
          "type": "uint256"
        }
      ],
      "name": "tokenURI",
      "outputs": [
        {
          "internalType": "string",
          "name": "",
          "type": "string"
        }
      ],
      "stateMutability": "view",
      "type": "function"
    },
    {
      "inputs": [],
      "name": "totalSupply",
      "outputs": [
        {
          "internalType": "uint256",
          "name": "",
          "type": "uint256"
        }
      ],
      "stateMutability": "view",
      "type": "function"
    },
    {
      "inputs": [
        {
          "internalType": "address",
          "name": "from",
          "type": "address"
        },
        {
          "internalType": "address",
          "name": "to",
          "type": "address"
        },
        {
          "internalType": "uint256",
          "name": "tokenId",
          "type": "uint256"
        }
      ],
      "name": "transferFrom",
      "outputs": [],
      "stateMutability": "nonpayable",
      "type": "function"
    },
    {
      "inputs": [
        {
          "internalType": "address",
          "name": "newOwner",
          "type": "address"
        }
      ],
      "name": "transferOwnership",
      "outputs": [],
      "stateMutability": "nonpayable",
      "type": "function"
    },
    {
      "inputs": [],
      "name": "unpause",
      "outputs": [],
      "stateMutability": "nonpayable",
      "type": "function"
    },
    {
      "inputs": [],
      "name": "withdraw",
      "outputs": [],
      "stateMutability": "nonpayable",
      "type": "function"
    }
  ],
  "bytecode": "0x60e06040526030608081815290620031c760a039600d90620000229082620002f9565b50662386f26fc10000600e819055600f55601280546001600160a01b0316607d60a21b1790553480156200005557600080fd5b50604051620031f7380380620031f7833981016040819052620000789162000474565b81816000620000888382620002f9565b506001620000978282620002f9565b505050620000b4620000ae620000f960201b60201c565b620000fd565b600c805460ff60a01b191690556010805461ffff1916610100179055601254620000f19033906001600160601b03600160a01b909104166200014f565b5050620004de565b3390565b600c80546001600160a01b038381166001600160a01b0319831681179093556040519116919082907f8be0079c531659141344cd1fd0a4f28419497f9722a3daafe3b4186f6b6457e090600090a35050565b6127106001600160601b0382161115620001c35760405162461bcd60e51b815260206004820152602a60248201527f455243323938313a20726f79616c7479206665652077696c6c206578636565646044820152692073616c65507269636560b01b60648201526084015b60405180910390fd5b6001600160a01b0382166200021b5760405162461bcd60e51b815260206004820152601960248201527f455243323938313a20696e76616c6964207265636569766572000000000000006044820152606401620001ba565b604080518082019091526001600160a01b039092168083526001600160601b039091166020909201829052600160a01b90910217600a55565b634e487b7160e01b600052604160045260246000fd5b600181811c908216806200027f57607f821691505b602082108103620002a057634e487b7160e01b600052602260045260246000fd5b50919050565b601f821115620002f457600081815260208120601f850160051c81016020861015620002cf5750805b601f850160051c820191505b81811015620002f057828155600101620002db565b5050505b505050565b81516001600160401b0381111562000315576200031562000254565b6200032d816200032684546200026a565b84620002a6565b602080601f8311600181146200036557600084156200034c5750858301515b600019600386901b1c1916600185901b178555620002f0565b600085815260208120601f198616915b82811015620003965788860151825594840194600190910190840162000375565b5085821015620003b55787850151600019600388901b60f8161c191681555b5050505050600190811b01905550565b600082601f830112620003d757600080fd5b81516001600160401b0380821115620003f457620003f462000254565b604051601f8301601f19908116603f011681019082821181831017156200041f576200041f62000254565b816040528381526020925086838588010111156200043c57600080fd5b600091505b8382101562000460578582018301518183018401529082019062000441565b600093810190920192909252949350505050565b600080604083850312156200048857600080fd5b82516001600160401b0380821115620004a057600080fd5b620004ae86838701620003c5565b93506020850151915080821115620004c557600080fd5b50620004d485828601620003c5565b9150509250929050565b612cd980620004ee6000396000f3fe6080604052600436106102c95760003560e01c80636352211e11610175578063a475b5dd116100dc578063c5bcce8811610095578063e985e9c51161006f578063e985e9c514610834578063f2c4ce1e1461087d578063f2fde38b1461089d578063fdea8e0b146108bd57600080fd5b8063c5bcce88146105c7578063c87b56dd146107e3578063df3fdf001461080357600080fd5b8063a475b5dd14610719578063ad2f852a1461072e578063b6374e351461074e578063b88d4fde14610764578063b8997a9714610784578063c54e73e3146107c357600080fd5b8063831e60de1161012e578063831e60de146106865780638456cb591461069b5780638693da20146106b05780638da5cb5b146106c657806395d89b41146106e4578063a22cb465146106f957600080fd5b80636352211e146105dc5780636c0360eb146105fc57806370a0823114610611578063715018a6146106315780637cb6475914610646578063811d24371461066657600080fd5b80633018f54f11610234578063484b973c116101ed57806355f804b3116101c757806355f804b3146105755780635a546223146105955780635c975abb146105a85780635e7ac138146105c757600080fd5b8063484b973c1461051b5780634f6ccce71461053b578063518302271461055b57600080fd5b80633018f54f1461047b57806331faafb41461049b57806332cb6b0c146104bb5780633ccfd60b146104d15780633f4ba83a146104e657806342842e0e146104fb57600080fd5b806318160ddd1161028657806318160ddd146103b457806323b872dd146103d35780632a55205a146103f35780632db11544146104325780632eb4a7ab146104455780632f745c591461045b57600080fd5b806301ffc9a7146102ce57806306d254da1461030357806306fdde0314610325578063081812fc14610347578063081c8c441461037f578063095ea7b314610394575b600080fd5b3480156102da57600080fd5b506102ee6102e9366004612567565b6108dc565b60405190151581526020015b60405180910390f35b34801561030f57600080fd5b5061032361031e3660046125a0565b6108ed565b005b34801561033157600080fd5b5061033a610930565b6040516102fa919061260b565b34801561035357600080fd5b5061036761036236600461261e565b6109c2565b6040516001600160a01b0390911681526020016102fa565b34801561038b57600080fd5b5061033a6109e9565b3480156103a057600080fd5b506103236103af366004612637565b610a77565b3480156103c057600080fd5b506008545b6040519081526020016102fa565b3480156103df57600080fd5b506103236103ee366004612661565b610b91565b3480156103ff57600080fd5b5061041361040e36600461269d565b610bc2565b604080516001600160a01b0390931683526020830191909152016102fa565b61032361044036600461261e565b610c6e565b34801561045157600080fd5b506103c560135481565b34801561046757600080fd5b506103c5610476366004612637565b610d66565b34801561048757600080fd5b5061032361049636600461261e565b610dfc565b3480156104a757600080fd5b506103236104b63660046126bf565b610e09565b3480156104c757600080fd5b506103c56107e781565b3480156104dd57600080fd5b50610323610e4a565b3480156104f257600080fd5b50610323610e6f565b34801561050757600080fd5b50610323610516366004612661565b610e7f565b34801561052757600080fd5b50610323610536366004612637565b610e9a565b34801561054757600080fd5b506103c561055636600461261e565b610ee8565b34801561056757600080fd5b506010546102ee9060ff1681565b34801561058157600080fd5b50610323610590366004612774565b610f7b565b6103236105a33660046127bd565b610f93565b3480156105b457600080fd5b50600c54600160a01b900460ff166102ee565b3480156105d357600080fd5b506103c5600a81565b3480156105e857600080fd5b506103676105f736600461261e565b611188565b34801561060857600080fd5b5061033a6111e8565b34801561061d57600080fd5b506103c561062c3660046125a0565b6111f5565b34801561063d57600080fd5b5061032361127b565b34801561065257600080fd5b5061032361066136600461261e565b61128d565b34801561067257600080fd5b5061032361068136600461261e565b61129a565b34801561069257600080fd5b506103c56112a7565b3480156106a757600080fd5b506103236112c8565b3480156106bc57600080fd5b506103c5600f5481565b3480156106d257600080fd5b50600c546001600160a01b0316610367565b3480156106f057600080fd5b5061033a6112d8565b34801561070557600080fd5b5061032361071436600461284c565b6112e7565b34801561072557600080fd5b506103236112f2565b34801561073a57600080fd5b50601254610367906001600160a01b031681565b34801561075a57600080fd5b506103c5600e5481565b34801561077057600080fd5b5061032361077f36600461287f565b611309565b34801561079057600080fd5b506012546107ab90600160a01b90046001600160601b031681565b6040516001600160601b0390911681526020016102fa565b3480156107cf57600080fd5b506103236107de3660046128fb565b61133b565b3480156107ef57600080fd5b5061033a6107fe36600461261e565b61135d565b34801561080f57600080fd5b5061033a60405180604001604052806005815260200164173539b7b760d91b81525081565b34801561084057600080fd5b506102ee61084f366004612916565b6001600160a01b03918216600090815260056020908152604080832093909416825291909152205460ff1690565b34801561088957600080fd5b50610323610898366004612774565b6114e0565b3480156108a957600080fd5b506103236108b83660046125a0565b6114f4565b3480156108c957600080fd5b506010546102ee90610100900460ff1681565b60006108e78261156a565b92915050565b6108f561158f565b601280546001600160a01b0319166001600160a01b0383169081179182905561092d91600160a01b90046001600160601b03166115e9565b50565b60606000805461093f90612940565b80601f016020809104026020016040519081016040528092919081815260200182805461096b90612940565b80156109b85780601f1061098d576101008083540402835291602001916109b8565b820191906000526020600020905b81548152906001019060200180831161099b57829003601f168201915b5050505050905090565b60006109cd826116e6565b506000908152600460205260409020546001600160a01b031690565b601180546109f690612940565b80601f0160208091040260200160405190810160405280929190818152602001828054610a2290612940565b8015610a6f5780601f10610a4457610100808354040283529160200191610a6f565b820191906000526020600020905b815481529060010190602001808311610a5257829003601f168201915b505050505081565b6000610a8282611188565b9050806001600160a01b0316836001600160a01b031603610af45760405162461bcd60e51b815260206004820152602160248201527f4552433732313a20617070726f76616c20746f2063757272656e74206f776e656044820152603960f91b60648201526084015b60405180910390fd5b336001600160a01b0382161480610b105750610b10813361084f565b610b825760405162461bcd60e51b815260206004820152603e60248201527f4552433732313a20617070726f76652063616c6c6572206973206e6f7420746f60448201527f6b656e206f776e6572206e6f7220617070726f76656420666f7220616c6c00006064820152608401610aeb565b610b8c8383611745565b505050565b610b9b33826117b3565b610bb75760405162461bcd60e51b8152600401610aeb9061297a565b610b8c838383611832565b6000828152600b602090815260408083208151808301909252546001600160a01b038116808352600160a01b9091046001600160601b0316928201929092528291610c37575060408051808201909152600a546001600160a01b0381168252600160a01b90046001600160601b031660208201525b602081015160009061271090610c56906001600160601b0316876129de565b610c609190612a13565b915196919550909350505050565b610c766119d9565b6000610c8160085490565b9050600082600f54610c9391906129de565b9050610ca0838383611a26565b601054610100900460ff1615610ced5760405162461bcd60e51b8152602060048201526012602482015271283932b9b0b6329034b99030b1ba34bb329760711b6044820152606401610aeb565b600a831115610d315760405162461bcd60e51b815260206004820152601060248201526f26b4b73a1030b6b7bab73a1037bb32b960811b6044820152606401610aeb565b60015b838111610d6057610d4e33610d498386612a27565b611b05565b80610d5881612a3a565b915050610d34565b50505050565b6000610d71836111f5565b8210610dd35760405162461bcd60e51b815260206004820152602b60248201527f455243373231456e756d657261626c653a206f776e657220696e646578206f7560448201526a74206f6620626f756e647360a81b6064820152608401610aeb565b506001600160a01b03919091166000908152600660209081526040808320938352929052205490565b610e0461158f565b600e55565b610e1161158f565b601280546001600160a01b03908116600160a01b6001600160601b0385811682028381179586905561092d9594169092179204166115e9565b610e5261158f565b610e6d610e67600c546001600160a01b031690565b47611b1f565b565b610e7761158f565b610e6d611c38565b610b8c83838360405180602001604052806000815250611309565b610ea261158f565b6000610ead60085490565b905060015b828111610d6057610ec733610d498385612a27565b610ed633856105168486612a27565b80610ee081612a3a565b915050610eb2565b6000610ef360085490565b8210610f565760405162461bcd60e51b815260206004820152602c60248201527f455243373231456e756d657261626c653a20676c6f62616c20696e646578206f60448201526b7574206f6620626f756e647360a01b6064820152608401610aeb565b60088281548110610f6957610f69612a53565b90600052602060002001549050919050565b610f8361158f565b600d610f8f8282612ab7565b5050565b610f9b6119d9565b6000610fa660085490565b9050600084600e54610fb891906129de565b9050610fc5858383611a26565b601054610100900460ff166110155760405162461bcd60e51b8152602060048201526016602482015275283932b9b0b6329034b9903737ba1030b1ba34bb329760511b6044820152606401610aeb565b6040516bffffffffffffffffffffffff193360601b16602082015260009060340160405160208183030381529060405280519060200120905061108f858580806020026020016040519081016040528093929190818152602001838360200280828437600092019190915250506013549150849050611c8d565b6110d25760405162461bcd60e51b815260206004820152601460248201527324b73b30b634b21026b2b935b63290283937b7b360611b6044820152606401610aeb565b33600090815260146020526040902054600a906110f0908890612a27565b11156111345760405162461bcd60e51b8152602060048201526013602482015272082d8e4cac2c8f240c6d8c2d2dacac840dac2f606b1b6044820152606401610aeb565b60015b86811161117f5761114c33610d498387612a27565b33600090815260146020526040812080549161116783612a3a565b9190505550808061117790612a3a565b915050611137565b50505050505050565b6000818152600260205260408120546001600160a01b0316806108e75760405162461bcd60e51b8152602060048201526018602482015277115490cdcc8c4e881a5b9d985b1a59081d1bdad95b88125160421b6044820152606401610aeb565b600d80546109f690612940565b60006001600160a01b03821661125f5760405162461bcd60e51b815260206004820152602960248201527f4552433732313a2061646472657373207a65726f206973206e6f7420612076616044820152683634b21037bbb732b960b91b6064820152608401610aeb565b506001600160a01b031660009081526003602052604090205490565b61128361158f565b610e6d6000611ca3565b61129561158f565b601355565b6112a261158f565b600f55565b601054600090610100900460ff16156112c15750600e5490565b50600f5490565b6112d061158f565b610e6d611cf5565b60606001805461093f90612940565b610f8f338383611d38565b6112fa61158f565b6010805460ff19166001179055565b61131333836117b3565b61132f5760405162461bcd60e51b8152600401610aeb9061297a565b610d6084848484611e06565b61134361158f565b601080549115156101000261ff0019909216919091179055565b6000818152600260205260409020546060906001600160a01b03166113c45760405162461bcd60e51b815260206004820152601f60248201527f55524920717565727920666f72206e6f6e6578697374656e7420746f6b656e006044820152606401610aeb565b60105460ff16151560000361146557601180546113e090612940565b80601f016020809104026020016040519081016040528092919081815260200182805461140c90612940565b80156114595780601f1061142e57610100808354040283529160200191611459565b820191906000526020600020905b81548152906001019060200180831161143c57829003601f168201915b50505050509050919050565b600061146f611e39565b9050600081511161148f57604051806020016040528060008152506114d9565b8061149984611e48565b60405180604001604052806005815260200164173539b7b760d91b8152506040516020016114c993929190612b77565b6040516020818303038152906040525b9392505050565b6114e861158f565b6011610f8f8282612ab7565b6114fc61158f565b6001600160a01b0381166115615760405162461bcd60e51b815260206004820152602660248201527f4f776e61626c653a206e6577206f776e657220697320746865207a65726f206160448201526564647265737360d01b6064820152608401610aeb565b61092d81611ca3565b60006001600160e01b0319821663152a902d60e11b14806108e757506108e782611f49565b600c546001600160a01b03163314610e6d5760405162461bcd60e51b815260206004820181905260248201527f4f776e61626c653a2063616c6c6572206973206e6f7420746865206f776e65726044820152606401610aeb565b6127106001600160601b03821611156116575760405162461bcd60e51b815260206004820152602a60248201527f455243323938313a20726f79616c7479206665652077696c6c206578636565646044820152692073616c65507269636560b01b6064820152608401610aeb565b6001600160a01b0382166116ad5760405162461bcd60e51b815260206004820152601960248201527f455243323938313a20696e76616c6964207265636569766572000000000000006044820152606401610aeb565b604080518082019091526001600160a01b039092168083526001600160601b039091166020909201829052600160a01b90910217600a55565b6000818152600260205260409020546001600160a01b031661092d5760405162461bcd60e51b8152602060048201526018602482015277115490cdcc8c4e881a5b9d985b1a59081d1bdad95b88125160421b6044820152606401610aeb565b600081815260046020526040902080546001600160a01b0319166001600160a01b038416908117909155819061177a82611188565b6001600160a01b03167f8c5be1e5ebec7d5bd14f71427d1e84f3dd0314c0f7b2291e5b200ac8c7c3b92560405160405180910390a45050565b6000806117bf83611188565b9050806001600160a01b0316846001600160a01b0316148061180657506001600160a01b0380821660009081526005602090815260408083209388168352929052205460ff165b8061182a5750836001600160a01b031661181f846109c2565b6001600160a01b0316145b949350505050565b826001600160a01b031661184582611188565b6001600160a01b0316146118a95760405162461bcd60e51b815260206004820152602560248201527f4552433732313a207472616e736665722066726f6d20696e636f72726563742060448201526437bbb732b960d91b6064820152608401610aeb565b6001600160a01b03821661190b5760405162461bcd60e51b8152602060048201526024808201527f4552433732313a207472616e7366657220746f20746865207a65726f206164646044820152637265737360e01b6064820152608401610aeb565b611916838383611f6e565b611921600082611745565b6001600160a01b038316600090815260036020526040812080546001929061194a908490612bba565b90915550506001600160a01b0382166000908152600360205260408120805460019290611978908490612a27565b909155505060008181526002602052604080822080546001600160a01b0319166001600160a01b0386811691821790925591518493918716917fddf252ad1be2c89b69c2b068fc378daa952ba7f163c4a11628f55a4df523b3ef91a4505050565b600c54600160a01b900460ff1615610e6d5760405162461bcd60e51b815260206004820152601060248201526f14185d5cd8589b194e881c185d5cd95960821b6044820152606401610aeb565b60008311611a765760405162461bcd60e51b815260206004820152601a60248201527f4d696e7420616d6f756e742063616e6e6f74206265207a65726f0000000000006044820152606401610aeb565b6107e7611a838484612a27565b1115611ac25760405162461bcd60e51b815260206004820152600e60248201526d26a0ac29aaa828262c9037bb32b960911b6044820152606401610aeb565b80341015610b8c5760405162461bcd60e51b815260206004820152601060248201526f4e6f7420656e6f7567682066756e647360801b6044820152606401610aeb565b610f8f828260405180602001604052806000815250612026565b80471015611b6f5760405162461bcd60e51b815260206004820152601d60248201527f416464726573733a20696e73756666696369656e742062616c616e63650000006044820152606401610aeb565b6000826001600160a01b03168260405160006040518083038185875af1925050503d8060008114611bbc576040519150601f19603f3d011682016040523d82523d6000602084013e611bc1565b606091505b5050905080610b8c5760405162461bcd60e51b815260206004820152603a60248201527f416464726573733a20756e61626c6520746f2073656e642076616c75652c207260448201527f6563697069656e74206d617920686176652072657665727465640000000000006064820152608401610aeb565b611c40612059565b600c805460ff60a01b191690557f5db9ee0a495bf2e6ff9c91a7834c1ba4fdd244a5e8aa4e537bd38aeae4b073aa335b6040516001600160a01b03909116815260200160405180910390a1565b600082611c9a85846120a9565b14949350505050565b600c80546001600160a01b038381166001600160a01b0319831681179093556040519116919082907f8be0079c531659141344cd1fd0a4f28419497f9722a3daafe3b4186f6b6457e090600090a35050565b611cfd6119d9565b600c805460ff60a01b1916600160a01b1790557f62e78cea01bee320cd4e420270b5ea74000d11b0c9f74754ebdbfc544b05a258611c703390565b816001600160a01b0316836001600160a01b031603611d995760405162461bcd60e51b815260206004820152601960248201527f4552433732313a20617070726f766520746f2063616c6c6572000000000000006044820152606401610aeb565b6001600160a01b03838116600081815260056020908152604080832094871680845294825291829020805460ff191686151590811790915591519182527f17307eab39ab6107e8899845ad3d59bd9653f200f220920489ca2b5937696c31910160405180910390a3505050565b611e11848484611832565b611e1d848484846120f6565b610d605760405162461bcd60e51b8152600401610aeb90612bcd565b6060600d805461093f90612940565b606081600003611e6f5750506040805180820190915260018152600360fc1b602082015290565b8160005b8115611e995780611e8381612a3a565b9150611e929050600a83612a13565b9150611e73565b60008167ffffffffffffffff811115611eb457611eb46126e8565b6040519080825280601f01601f191660200182016040528015611ede576020820181803683370190505b5090505b841561182a57611ef3600183612bba565b9150611f00600a86612c1f565b611f0b906030612a27565b60f81b818381518110611f2057611f20612a53565b60200101906001600160f81b031916908160001a905350611f42600a86612a13565b9450611ee2565b60006001600160e01b0319821663780e9d6360e01b14806108e757506108e7826121f7565b6001600160a01b038316611fc957611fc481600880546000838152600960205260408120829055600182018355919091527ff3f7a9fe364faab93b216da50a3214154f22a0a2b415b23a84c8169e8b636ee30155565b611fec565b816001600160a01b0316836001600160a01b031614611fec57611fec8382612247565b6001600160a01b03821661200357610b8c816122e4565b826001600160a01b0316826001600160a01b031614610b8c57610b8c8282612393565b61203083836123d7565b61203d60008484846120f6565b610b8c5760405162461bcd60e51b8152600401610aeb90612bcd565b600c54600160a01b900460ff16610e6d5760405162461bcd60e51b815260206004820152601460248201527314185d5cd8589b194e881b9bdd081c185d5cd95960621b6044820152606401610aeb565b600081815b84518110156120ee576120da828683815181106120cd576120cd612a53565b6020026020010151612525565b9150806120e681612a3a565b9150506120ae565b509392505050565b60006001600160a01b0384163b156121ec57604051630a85bd0160e11b81526001600160a01b0385169063150b7a029061213a903390899088908890600401612c33565b6020604051808303816000875af1925050508015612175575060408051601f3d908101601f1916820190925261217291810190612c70565b60015b6121d2573d8080156121a3576040519150601f19603f3d011682016040523d82523d6000602084013e6121a8565b606091505b5080516000036121ca5760405162461bcd60e51b8152600401610aeb90612bcd565b805181602001fd5b6001600160e01b031916630a85bd0160e11b14905061182a565b506001949350505050565b60006001600160e01b031982166380ac58cd60e01b148061222857506001600160e01b03198216635b5e139f60e01b145b806108e757506301ffc9a760e01b6001600160e01b03198316146108e7565b60006001612254846111f5565b61225e9190612bba565b6000838152600760205260409020549091508082146122b1576001600160a01b03841660009081526006602090815260408083208584528252808320548484528184208190558352600790915290208190555b5060009182526007602090815260408084208490556001600160a01b039094168352600681528383209183525290812055565b6008546000906122f690600190612bba565b6000838152600960205260408120546008805493945090928490811061231e5761231e612a53565b90600052602060002001549050806008838154811061233f5761233f612a53565b600091825260208083209091019290925582815260099091526040808220849055858252812055600880548061237757612377612c8d565b6001900381819060005260206000200160009055905550505050565b600061239e836111f5565b6001600160a01b039093166000908152600660209081526040808320868452825280832085905593825260079052919091209190915550565b6001600160a01b03821661242d5760405162461bcd60e51b815260206004820181905260248201527f4552433732313a206d696e7420746f20746865207a65726f20616464726573736044820152606401610aeb565b6000818152600260205260409020546001600160a01b0316156124925760405162461bcd60e51b815260206004820152601c60248201527f4552433732313a20746f6b656e20616c7265616479206d696e746564000000006044820152606401610aeb565b61249e60008383611f6e565b6001600160a01b03821660009081526003602052604081208054600192906124c7908490612a27565b909155505060008181526002602052604080822080546001600160a01b0319166001600160a01b03861690811790915590518392907fddf252ad1be2c89b69c2b068fc378daa952ba7f163c4a11628f55a4df523b3ef908290a45050565b60008183106125415760008281526020849052604090206114d9565b5060009182526020526040902090565b6001600160e01b03198116811461092d57600080fd5b60006020828403121561257957600080fd5b81356114d981612551565b80356001600160a01b038116811461259b57600080fd5b919050565b6000602082840312156125b257600080fd5b6114d982612584565b60005b838110156125d65781810151838201526020016125be565b50506000910152565b600081518084526125f78160208601602086016125bb565b601f01601f19169290920160200192915050565b6020815260006114d960208301846125df565b60006020828403121561263057600080fd5b5035919050565b6000806040838503121561264a57600080fd5b61265383612584565b946020939093013593505050565b60008060006060848603121561267657600080fd5b61267f84612584565b925061268d60208501612584565b9150604084013590509250925092565b600080604083850312156126b057600080fd5b50508035926020909101359150565b6000602082840312156126d157600080fd5b81356001600160601b03811681146114d957600080fd5b634e487b7160e01b600052604160045260246000fd5b600067ffffffffffffffff80841115612719576127196126e8565b604051601f8501601f19908116603f01168101908282118183101715612741576127416126e8565b8160405280935085815286868601111561275a57600080fd5b858560208301376000602087830101525050509392505050565b60006020828403121561278657600080fd5b813567ffffffffffffffff81111561279d57600080fd5b8201601f810184136127ae57600080fd5b61182a848235602084016126fe565b6000806000604084860312156127d257600080fd5b83359250602084013567ffffffffffffffff808211156127f157600080fd5b818601915086601f83011261280557600080fd5b81358181111561281457600080fd5b8760208260051b850101111561282957600080fd5b6020830194508093505050509250925092565b8035801515811461259b57600080fd5b6000806040838503121561285f57600080fd5b61286883612584565b91506128766020840161283c565b90509250929050565b6000806000806080858703121561289557600080fd5b61289e85612584565b93506128ac60208601612584565b925060408501359150606085013567ffffffffffffffff8111156128cf57600080fd5b8501601f810187136128e057600080fd5b6128ef878235602084016126fe565b91505092959194509250565b60006020828403121561290d57600080fd5b6114d98261283c565b6000806040838503121561292957600080fd5b61293283612584565b915061287660208401612584565b600181811c9082168061295457607f821691505b60208210810361297457634e487b7160e01b600052602260045260246000fd5b50919050565b6020808252602e908201527f4552433732313a2063616c6c6572206973206e6f7420746f6b656e206f776e6560408201526d1c881b9bdc88185c1c1c9bdd995960921b606082015260800190565b634e487b7160e01b600052601160045260246000fd5b60008160001904831182151516156129f8576129f86129c8565b500290565b634e487b7160e01b600052601260045260246000fd5b600082612a2257612a226129fd565b500490565b808201808211156108e7576108e76129c8565b600060018201612a4c57612a4c6129c8565b5060010190565b634e487b7160e01b600052603260045260246000fd5b601f821115610b8c57600081815260208120601f850160051c81016020861015612a905750805b601f850160051c820191505b81811015612aaf57828155600101612a9c565b505050505050565b815167ffffffffffffffff811115612ad157612ad16126e8565b612ae581612adf8454612940565b84612a69565b602080601f831160018114612b1a5760008415612b025750858301515b600019600386901b1c1916600185901b178555612aaf565b600085815260208120601f198616915b82811015612b4957888601518255948401946001909101908401612b2a565b5085821015612b675787850151600019600388901b60f8161c191681555b5050505050600190811b01905550565b60008451612b898184602089016125bb565b845190830190612b9d8183602089016125bb565b8451910190612bb08183602088016125bb565b0195945050505050565b818103818111156108e7576108e76129c8565b60208082526032908201527f4552433732313a207472616e7366657220746f206e6f6e20455243373231526560408201527131b2b4bb32b91034b6b83632b6b2b73a32b960711b606082015260800190565b600082612c2e57612c2e6129fd565b500690565b6001600160a01b0385811682528416602082015260408101839052608060608201819052600090612c66908301846125df565b9695505050505050565b600060208284031215612c8257600080fd5b81516114d981612551565b634e487b7160e01b600052603160045260246000fdfea26469706673582212203a55051fa693ce8f0a8947ccc73a09c8a2f067051cac87ba789adeab86e6375064736f6c6343000810003361723a2f2f3244534d3947366c4e62374b424c6c54444130482d73656952314631705439386872396d73364c69665f73",
  "linkReferences": {},
  "deployedLinkReferences": {}
}